{
	"_format": "hh-sol-artifact-1",
	"contractName": "Foodlive",
	"sourceName": "contracts/Foodlive.sol",
	"abi": [
		{
			"anonymous": false,
			"inputs": [
				{
					"indexed": false,
					"internalType": "uint256",
					"name": "",
					"type": "uint256"
				},
				{
					"indexed": false,
					"internalType": "uint256",
					"name": "",
					"type": "uint256"
				}
			],
			"name": "PaymentOrder",
			"type": "event"
		},
		{
			"inputs": [],
			"name": "getBalance",
			"outputs": [
				{
					"internalType": "uint256",
					"name": "",
					"type": "uint256"
				}
			],
			"stateMutability": "view",
			"type": "function"
		},
		{
			"inputs": [
				{
					"internalType": "uint256",
					"name": "_orderId",
					"type": "uint256"
				}
			],
			"name": "paymentOrder",
			"outputs": [],
			"stateMutability": "payable",
			"type": "function"
		}
	],
	"bytecode": "0x608060405234801561001057600080fd5b506101a1806100206000396000f3fe6080604052600436106100295760003560e01c806312065fe01461002e5780631247e91d14610059575b600080fd5b34801561003a57600080fd5b50610043610075565b6040516100509190610106565b60405180910390f35b610073600480360381019061006e91906100ce565b61007d565b005b600047905090565b7f2d4515b4d2e9e432433e3ef9944a92f60d5f2e3213d302cfdb197e6f16782a3c81346040516100ae929190610121565b60405180910390a150565b6000813590506100c881610154565b92915050565b6000602082840312156100e057600080fd5b60006100ee848285016100b9565b91505092915050565b6101008161014a565b82525050565b600060208201905061011b60008301846100f7565b92915050565b600060408201905061013660008301856100f7565b61014360208301846100f7565b9392505050565b6000819050919050565b61015d8161014a565b811461016857600080fd5b5056fea2646970667358221220f311622f5ca536f9ca4076bccc83986c13fae6317b3997982215f8f18f19664564736f6c63430008040033",
	"linkReferences": {},
	"deployedLinkReferences": {}
}